:020000040040BA
:10000000E8294020790E4000750E4000750E400032
:10001000750E4000750E4000750E40000000000097
:10002000000000000000000000000000750E40000D
:10003000750E400000000000750E4000750E400077
:10004000750E4000750E400089034000750E40009B
:10005000750E4000750E4000750E4000750E400094
:10006000750E400000000000510B4000650B400081
:10007000790B4000750E4000750E4000750E400073
:100080008D0B4000A10B4000750E4000750E400026
:10009000750E4000750E4000750E4000750E400054
:1000A00069034000750E4000750E4000750E40005B
:1000B000750E40006D0A4000750E4000750E400040
:1000C000750E4000750E4000750E4000750E400024
:1000D00000000000750E400000000000750E40009A
:1000E000810A4000750E4000750E4000750E4000FC
:1000F000750E4000750E4000750E4000750E4000F4
:10010000750E4000750E4000750E4000750E4000E3
:10011000750E40000000000000000000000000001C
:10012000750E4000750E4000750E4000750E4000C3
:10013000750E400000000000750E4000750E400076
:1001400010B5054C237833B9044B13B10448AFF311
:1001500000800123237010BD7C08402000000000B7
:1001600008434000084B10B51BB108490848AFF3DD
:1001700000800848036803B910BD074B002BFBD073
:10018000BDE81040184700BF000000008008402074
:10019000084340000843400000000000044B0B22CD
:1001A0005A669A6E034B1A600122034B1A7070470D
:1001B00000C003409C08402098084020F0B583B060
:1001C00005460C4600230193294B984207D11F4650
:1001D000284E21463846B0470028FAD115E0264B74
:1001E000984207D11F46234E21463846B047002883
:1001F000FAD115E0214B984207D11F461D4E2146EA
:100200003846B0470028FAD117E01D4B9D4207D170
:100210001F46184E21463846B0470028FAD119E04B
:10022000184B9D4209D11E46174D01A93046A847DB
:100230000028FAD1019B237018E0144B9D4209D18C
:100240001E46114D01A93046A8470028FAD1019B4E
:1002500023700BE00E4B9D4208D11E460A4D01A9AA
:100260003046A8470028FAD1019B237003B0F0BDA7
:1002700000080E40450D4000000A0E40001A0E40D6
:10028000001C0E40004002405D0E40000080024015
:1002900000C0024070B50C462A4B984208D11E4659
:1002A000294D21463046A8470028FAD1012070BDCB
:1002B000264B984208D11E46234D21463046A8477A
:1002C0000028FAD1012070BD214B984208D11E466A
:1002D0001D4D21463046A8470028FAD1012070BDA7
:1002E0001C4B984208D11E46174D21463046A84760
:1002F0000028FAD1012070BD174B984208D11E4644
:10030000164D21463046A8470028FAD1012070BD7D
:10031000134B984208D11E46104D21463046A8473F
:100320000028FAD1012070BD0E4B984208D11E461C
:100330000A4D21463046A8470028FAD1012070BD59
:10034000002070BD00080E40310D4000000A0E4034
:10035000001A0E40001C0E4000400240450E4000B6
:100360000080024000C0024000B583B00121044873
:10037000044B98470190019B03B05DF804FB00BF5C
:1003800000C000407905400008B50548054B984776
:1003900010F0040F03D004210148034B984708BD17
:1003A00060180E407105400075054000F0B591B031
:1003B0004C4B98470A204C4CA0470B20A0470C20E0
:1003C000A0471020A0471120A047484B98470E2077
:1003D000A047474E474B1E60474A484B1A60484A61
:1003E000484B1A604FF4E1330193C02302934FF45A
:1003F000006703970025049505950E20A047424A03
:1004000001A93046414B98473046414B984730460A
:10041000404B9847404E3368294698683F4CA04768
:10042000336829465868A0473D483E4B98473E4CA4
:1004300020463E4B98470AA83D4B98470AA92046BC
:100440003C4B9847636823F08F03636001233A4A6B
:100450000B212046394EB04709A8394B98478DF8F3
:10046000255009AA0B212046364B98470B2363667B
:100470004FF40073E36607A8334B984707A920465B
:10048000324B9847676102232360314B1A6840F66C
:10049000E44303FB02F22F4BA3FB0213D21A03EB3C
:1004A0005203DB0AA3F53473642202FB03F32A4DE3
:1004B00085FB03251D44DB17C3EBE5151B35274CD6
:1004C000274E237813F0FF0FFBD00023237029461B
:1004D0002448254B98470222134B1A603046234B81
:1004E0009847EEE781054000DD0C40007D064000A6
:1004F000008002405C0940209502400058094020DD
:10050000BD0140005409402080D1F008E10D4000B9
:10051000350E40003D0E400040044020CD1240000A
:1005200010424000BD12400000C00340950A400048
:10053000C5084000150940009D014000150A400013
:10054000F50840008108400001094000B108400062
:100550009C08402001011000059CA28C98084020B6
:100560006BAF030370424000911140000100402036
:1005700080697047C161704700EB8111086A70475C
:1005800010B51048104B98473E2100200F4B98475C
:100590000F4CA0470028FCD00E4B98470E4A0F4B3B
:1005A0009A620F4CA0470028FCD002200D4B9847C0
:1005B00000200D4B98470D4B98470248024B984737
:1005C00010BD00BF00A3E11165104000590C4000B0
:1005D000AD0C4000BD0C4000013F182000060E404D
:1005E000CD0C4000B50B4000F10B4000550F400012
:1005F00090B92DE9F0410C469046002A0FDD8F1886
:10060000084E094D306821462B6898470134A742AF
:10061000F8D14046BDE8F0814FF0FF307047002030
:10062000BDE8F0815C0940205409402001380228CF
:1006300015D82DE9F0410E4614469AB10D46DFF863
:1006400038800C4FD8F8000015F8011B3B6898471C
:1006500000280ADBA81B013CF4D1BDE8F0814FF073
:10066000FF3070470020BDE8F0814FF0FF30BDE85B
:10067000F08100BF580940205C094020F8B54FF4D4
:100680000042574B5A60BFF34F8FBFF36F8F554BEC
:100690000022C3F850225A6942F400325A61BFF373
:1006A0004F8FBFF36F8FD3F88060C6F34E3506F0DF
:1006B00007070437C6F3C906B6FA86F000F01F0034
:1006C000BFF34F8F1C46334605FA07F103FA00F2D9
:1006D0000A43C4F86022013BB3F1FF3FF6D1013D6C
:1006E000B5F1FF3FEFD1BFF34F8F3E4B5A6942F454
:1006F00080325A61BFF34F8FBFF36F8F3A4A3B4945
:100700005160A1F580715160BFF34F8FBFF36F8FC0
:10071000D3F8902222F00102C3F89022D3F8942259
:1007200022F00102C3F89422BFF34F8FBFF36F8F03
:100730000A202F4CA0470B20A0470C20A0471020D8
:10074000A0471120A0472B4B4FF480721A61C3F8C9
:10075000A0201A63A3F580634FF400625A61C3F8C6
:10076000A0205A66C3F890205A651A62C3F8842004
:10077000196F21F400611967596F21F400615967FD
:10078000C3F8C020C3F8D420C3F8B0204FF400123F
:100790001A66C3F890205A655A62C3F88020196F10
:1007A00021F400111967596F21F4001159675A603B
:1007B000114AD2F8143143F01003C2F814310F4B30
:1007C00010221A66C3F890205A655A62C3F8802036
:1007D000196F11431967596F114359675A60F8BD72
:1007E00050180E4000ED00E0000C0E400C08005ABE
:1007F000DD0C400000120E400080084000100E404A
:1008000070B582B0026BC36A1340019300241A4E84
:100810001A4DA84214BF0020012005010B2C0AD854
:10082000019A0123A340134220D02B1956F82330FC
:10083000E3B198471AE00E2C0CD8019A04F10C0190
:1008400001238B40134211D02B1956F823306BB182
:1008500098470BE0019A04F10F0101238B401342EA
:1008600004D02B1956F8233003B198470134102CCB
:10087000D4D102B070BD00BF6009402000400640E6
:1008800030B4046E01238B4024EA03041578002D54
:1008900008BF002323430366446D4D000321A94094
:1008A00024EA01035178A9401943416530BC7047DF
:1008B0004A780B78134303678A884B8843EA0243DC
:1008C0004367704700220260084B4360084B836017
:1008D0004FF48023C36002230374012343748374A1
:1008E000C274037543758375704700BF00A3E1119F
:1008F000808D5B000023037001234370704700BFAD
:100900000023037020234370FF23438040F6FF73CE
:1009100083807047036B13F0807350D110B40122B1
:100920000260CA7C002A18BF4FF000434A688C68F6
:10093000B2FBF4F2013A120292B2CC6844F4000421
:1009400022430C7C240604F0706422434C7C240770
:1009500004F040542243134343600B7D002B14BF2B
:100960004FF0807200220B681A434B7D002B14BF9E
:100970004FF000730023134383608B7D1B0203F44D
:10098000407343F00C03C0F89430104B984209D1E7
:100990000F4B03F14001002243F8042F8B42FBD19F
:1009A00000200FE00B4B98420BD10B4B03F14001A1
:1009B000002243F8042F8B42FBD1002002E01920D3
:1009C000704700205DF8044B704700BF00C0034033
:1009D0005C094020004006409C0940200C4B994295
:1009E00001D1436270470B2909D803D14FF400634A
:1009F00043627047012303FA01F1416270470E29F7
:100A000094BF0C310F31012303FA01F141627047A9
:100A1000FF0F004738B5114CA0420CBF1024002432
:100A20000C440F4D45F824200AD00E4A4FF00054D4
:100A3000C2F880415B01DBB282F81D33146009E02B
:100A4000084A4FF48074C2F884415B01DBB282F83B
:100A500028335460044B984738BD00BF004006401F
:100A60006009402000E100E0DD09400008B50248CF
:100A7000024B984708BD00BF00C00340010840007A
:100A800008B50248024B984708BD00BF0040064029
:100A90000108400000B583B0134B98420CBF2820DA
:100AA0001D20124B9847124B9B78FF2B00D1FEE77D
:100AB000EFF31083B3FA83F35B09019372B6BFF3CC
:100AC0005F8F00220B4B1A700199094A937801330A
:100AD000937029B10122074B1A70BFF35F8F62B682
:100AE00003B05DF804FB00BF00400640DD0C400091
:100AF0004C0940200C004020C06C7047806C70474F
:100B00002DE9F041044688460E4B9847054620469D
:100B10000D4B9847054013D00C4C04F16006236838
:100B2000434508D16168294205D0E36840469847AB
:100B3000636825EA0305B44202D01034002DEED1DB
:100B4000BDE8F081F90A4000FD0A4000A0084020FD
:100B500008B50A210148024B984708BD000E0E4017
:100B6000010B400008B50B210148024B984708BD16
:100B700000100E40010B400008B50C210148024B4B
:100B8000984708BD00120E40010B400008B5102127
:100B90000148024B984708BD00140E40010B40006D
:100BA00008B511210148024B984708BD00160E40B8
:100BB000010B4000032807D0042808D002280CBFEE
:100BC0004FF48072002204E04FF4407201E04FF4D1
:100BD000007206490B6B23F4407313430B630A4600
:100BE000936E13F0080FFBD0704700BF00060E4055
:100BF000184A136B23F0700318431063936E13F0BD
:100C0000080F03D009E0013B03D11EE04FF48053ED
:100C100010498A6E12F0080FF5D00E4A136B23F0BC
:100C2000030343F002031363906E10F0080004D036
:100C300000207047013B03D109E04FF48053054980
:100C40008A6E12F0080FF5D070470120704701201E
:100C5000704700BF00060E4038B10E490B6A0E4ABD
:100C60001A400E4B13430B6270470A48036A09028D
:100C700089B20B4A1A400B4B1343194301620246D7
:100C8000936E13F0010FFBD0024A116A064B0B431F
:100C90001362704700060E40FCFFC8FE02003701D9
:100CA000FCFFC8FF0100370000003701024B986EBF
:100CB00000F48030704700BF00060E404FF0005235
:100CC000014B9A62704700BF00060E40024B986EBF
:100CD00000F00200704700BF00060E403F281ED8FB
:100CE0001F280CD8114B9A6901238340934318D0D5
:100CF000012303FA00F00D4B1861002070472038E3
:100D00000A4BD3F808210123834093430BD00123DE
:100D100003FA00F0054BC3F80001002070470120E2
:100D20007047002070470020704700BF00060E404B
:100D3000436913F0020F02D0C16100207047012007
:100D4000704700BF436913F0010F03D083690B7034
:100D5000002070470120704710B40C0194420FD955
:100D60001AE0416841F400214160120402F4E022DB
:100D70001A43026200201CE001201AE0012018E062
:100D8000630803EBC202B2FBF4F2D3085C1E4FF619
:100D9000FE718C42E9D9EFE7C9004B0803EBC202B0
:100DA000B2FBF1F2D3085C1E4FF6FE718C42E5D81F
:100DB000D7E75DF8044B7047084BC0F8E4300023D8
:100DC00043604362836288230360242303604FF4FB
:100DD000807303604FF40023036070470041535554
:100DE00070B505460C4616460F4B984700220F4B30
:100DF0001A609CB13246216828460D4B984702463E
:100E000070B96168A368194323691943E3680B4308
:100E100006490B6069680B436B6002E0012200E049
:100E20000122104670BD00BFB90D400010094020DE
:100E3000590D400040230360704700BF102303603A
:100E4000704700BF436913F0020F04D0C1F30801DB
:100E5000C161002070470120704700BF436913F053
:100E6000010F05D08369C3F308030B6000207047AE
:100E700001207047FEE700BF00B583B0274B284A2A
:100E80009A4203D0274B254A9A4204D3264B274A3D
:100E90009A420FD31AE02149254B5B1A23F0030332
:100EA00004331F4A134452F8040B41F8040B9A42CE
:100EB000F9D1EBE71F4B204AD21A22F003021A4461
:100EC000043B002143F8041B9342FBD11B4A1C4BFB
:100ED00023F07F039360EFF31083B3FA83F35B098E
:100EE000019372B6BFF35F8F0022164B1A700199FF
:100EF000154A136843F470031360BFF34F8FBFF3B9
:100F00006F8F29B101220F4B1A70BFF35F8F62B64A
:100F10000E4B98470E4B9847FEE700BF000040205D
:100F2000084340007C084020E40940207C08402021
:100F30007B08402080084020E709402000ED00E0C9
:100F4000000040000C00402088ED00E0411140000E
:100F5000AD0340003C4B1B6B03F00303012B0FD090
:100F600013B1022B29D057E0384B5B6913F0800F87
:100F700014BF4FF400424FF4FA42354B1A604BE075
:100F8000314B1B6A13F0807F03D0324A304B1A601A
:100F900042E0314A2E4B1A602B4B1B6A03F0700360
:100FA000102B02D0202B04D036E02C4A284B1A609C
:100FB00032E0284A264B1A602EE0234B1B6A13F0BE
:100FC000807F03D0234A224B1A6012E0224A204B32
:100FD0001A601D4B1B6A03F07003102B02D0202BEC
:100FE00004D006E01D4A1A4B1A6002E0194A184B59
:100FF0001A60154B1B6B03F00303022B0CD1124A32
:10100000936A926A1248C3F30A41036801FB0333EF
:10101000D2B2B3FBF2F303600B4B1B6B03F0700314
:10102000702B07D10A4A13680D49A1FB03135B0813
:1010300013607047044B1B6B0549C3F302120B6826
:10104000D3400B60704700BF00060E4010180E40E2
:1010500010004020001BB70000093D0000127A007C
:10106000ABAAAAAA164B984204D84FF08062154B3F
:101070001A607047144B984203D8144A114B1A60F7
:101080007047134B984203D8124A0E4B1A607047B0
:10109000114B984203D8114A0A4B1A607047104B03
:1010A000984204D84FF00422064B1A6070470D4B4B
:1010B000984294BF0C4A0D4A024B1A60704700BF19
:1010C000BFF35E01000C0E407FE7BD02000100048B
:1010D0003FDB1C0400020004FFCE7B05000300047C
:1010E000BFC2DA067FB63908000500040006000416
:1010F000094B1B6813B9094A074B1A60064B1B685A
:101100001A180749914204DB1046034A106018463A
:1011100070474FF0FF30704714094020E82B402003
:10112000FCFF45204FF0FF30704700BF4FF40053E5
:101130004B600020704700BF0120704700207047BF
:1011400070B50F4E0F4D761BB61018BF002405D09A
:10115000013455F8043B9847A642F9D10A4E0B4D8D
:10116000761B03F0BBF8B61018BF002406D001347C
:1011700055F8043B9847A642F9D170BD70BD00BF39
:10118000E8424000E8424000F0424000E8424000AF
:101190000FB400B5074983B004AB086853F8042BBB
:1011A0008168019300F0F6F903B05DF804EB04B038
:1011B000704700BF4004402070B4840746D0541EDE
:1011C000002A41D0CDB2034602E0621EE4B31446C9
:1011D00003F8015B9A07F8D1032C2ED9CDB245EA6A
:1011E00005250F2C45EA054519D903F110022646BD
:1011F000103E0F2E42F8105C42F80C5C42F8085C7E
:1012000042F8045C02F11002F2D8A4F1100222F0BC
:101210000F0204F00F041032032C13440DD91E46A4
:101220002246043A032A46F8045BFAD8221F22F029
:1012300003020432134404F003042CB1C9B21C4469
:1012400003F8011BA342FBD170BC70471446034650
:10125000C2E700BFF0B5054689B008460C4600F06D
:10126000EFF8AB6B144F04940126441C04A902222E
:1012700003940590AC680697079601910292B3B16A
:10128000B4F90C309A0406D4626E43F4005322F48D
:101290000052A38162662146284601AA01F00CFC97
:1012A000002814BF4FF0FF300A2009B0F0BD2846D7
:1012B00001F050FAE4E700BF88424000024B0146CB
:1012C0001868FFF7C7BF00BF4004402000290CBFCB
:1012D000022200224FF4806300F000B82DE9F043B1
:1012E000514C256883B004460F4690461E4615B102
:1012F000AB6B002B79D0B8F1020F04D0B8F1010F1D
:101300007FD8002E7DDB2146284601F08FF9216B26
:1013100041B104F14003994202D0284601F0E4FAB9
:1013200000232363B4F90C300022A26162601A0624
:1013300054D423F44A6323F00303B8F1020FA381CA
:1013400039D001AB6A462146284601F06BFDA389DE
:101350001843A08126B327B3AB6B002B4DD0009B65
:10136000B4F90C0027609E421CBF40F40060A081CD
:10137000B8F1010F08BF40F0010083B208BFA0819F
:1013800003F0080080B22761666118B313F0010012
:101390002FD000207642A661A06003B0BDE8F083A4
:1013A000009E304601F0B2FD074668B3A38943F0C2
:1013B0008003A381D0E7002004F1430243F002033D
:1013C00000250121A381A56022602261616103B033
:1013D000BDE8F083A06003B0BDE8F0832169284632
:1013E00001F082FAB4F90C30A3E7284601F0B2F913
:1013F00081E7A66003B0BDE8F083284601F0AAF9B2
:10140000ADE74FF0FF30E2E7DDF80090B14506D0E0
:10141000484601F07BFD074608B14E46C6E7B4F9E1
:101420000C304FF0FF30C7E74004402000000000C0
:1014300000000000000000000000000000000000AC
:1014400090F800F06DE9024520F007016FF0000C04
:1014500010F0070491F820F040F049804FF00004AC
:101460006FF00700D1E9002391F840F000F1080087
:1014700082FA4CF2A4FA8CF283FA4CF3A2FA8CF3BF
:101480004BBBD1E9022382FA4CF200F10800A4FA26
:101490008CF283FA4CF3A2FA8CF3E3B9D1E904237A
:1014A00082FA4CF200F10800A4FA8CF283FA4CF3B1
:1014B000A2FA8CF37BB9D1E9062301F1200182FA6B
:1014C0004CF200F10800A4FA8CF283FA4CF3A2FA71
:1014D0008CF3002BC6D0002A04BF04301A4612BA7F
:1014E000B2FA82F2FDE8024500EBD2007047D1E982
:1014F000002304F00305C4F100004FEAC50514F011
:10150000040F91F840F00CFA05F562EA05021CBFE1
:1015100063EA050362464FF00004A9E74B6E2DE92C
:10152000F0479C0492462CD5936812683BB30F4653
:10153000804602F1080919E96000B60817D0043D99
:10154000002401E0A64210D03A4655F8041F404658
:1015500001F06AF9431C04F10104F3D10023CAF835
:101560000830CAF80430BDE8F087DAF80830A3EB99
:101570008603CAF8083009F10809002BDBD10020E6
:10158000ECE701F099FA0023CAF80830CAF80430F1
:10159000BDE8F0872DE9F04FABB01C4600919046B6
:1015A0000493059018B1836B002B00F0DE80009847
:1015B000B0F90C108AB2950407D4436E41F400527E
:1015C00023F400538281436692B2110740F1B18047
:1015D000009B1B69002B00F0AC8002F01A020A2A63
:1015E00000F0B58000230DF1680B02930F930E936A
:1015F000CDF834B0DA4698F800304446FBB1252BDC
:1016000002D11CE0252B03D014F8013F002BF9D1A7
:10161000C8EB04059DB10E9B0F9ACAF800800133F8
:101620002A44072BCAF804500F920E937BDD002A40
:1016300040F02885029B0E922B44DA4602932378D1
:10164000002B00F03E8400214FF000034FF0FF32EA
:101650008DF82F3004F101086378019208460E4698
:101660000C4608F10108A3F12002582A00F29383E6
:10167000DFE812F04603910391034E0391039103B7
:101680009103910391039103890267029103800002
:101690006C029103C60159025902590259025902BA
:1016A000590259025902590291039103910391037E
:1016B000910391039103910391039103CB01910352
:1016C000910391039103910391039103910391037A
:1016D0009103140291039103910391039103EE028C
:1016E00091039103110391039103910391039103DA
:1016F0009103910391039103910334038A039103AE
:101700009103910367038A03910391036C0391038F
:10171000790395028500E90291039B029103BA02C5
:101720009103910353030AF1080A029B2B4402938D
:1017300085E70099059800F061FE002840F0588583
:10174000009B9A8902F01A020A2A7FF44BAF009993
:10175000B1F90E30002BFFF645AF234642460598FF
:1017600000F016FE2BB0BDE8F08F00F0F3FF1EE78F
:101770006442049346F0040698F8003071E7302183
:1017800004988DF83010019906944FF000037822E8
:101790008DF82F30002903468DF83120046803F1BD
:1017A00004034FF0000546F00202C0F2258526F042
:1017B000800654EA050246F00206049340F0BF8416
:1017C000B348019B002B40F01C84994600230193F1
:1017D00003935F46019B039A9342B8BF13461D468D
:1017E000B9F1000F00D0013516F00203079318BFBE
:1017F000023516F08403089340F0F182069B5C1BCF
:10180000002C40F3EC82102C40F35685DFF88492D4
:10181000DDF838E00F9AD4461023C2467046A84639
:101820004D46DDF8149007E000F1020E0CF1080CB3
:101830000846103C102C13DD411C103207290F9272
:10184000CCF80050CCF804300E91EDDD002A40F0C9
:10185000B782103C102C10464FF0010EDC46EBDC3A
:10186000A94670464546D046E246224407280F92D4
:10187000CAF80090CAF804400E9000F375839DF8F2
:101880002F300AF1080A00F1010E002B40F0B0825F
:10189000079B002B00F0C38202320CA90223BEF189
:1018A000070F0F92CDF838E08AE80A0040F37883FA
:1018B000002A40F00A84089B802B4FF0010E10464E
:1018C000DA4640F0B082069B5C1B002C40F3AB82F2
:1018D000102CDFF8C49140F30B85D6461023C24686
:1018E000A8464D46DDF8149007E000F1020C0EF119
:1018F000080E0846103C102C13DD411C103207293D
:101900000F92CEF80050CEF804300E91EDDD002A93
:1019100040F01583103C102C4FF0010C1046DE46B1
:10192000EBDCA9464546D046F2462244BCF1070FFF
:101930000F92CAF80090CAF80440CDF838C000F3FE
:10194000D283019B03995C1A002C0AF1080A0CF15E
:10195000010E604600F36D820399CAF800700A44D4
:10196000BEF1070F0F92CAF80410CDF838E040F32B
:10197000CE82002A40F03A8370070E9238D5069B3B
:101980005C1B002C34DDDA46102C40F3AB84DFF80E
:1019900004910E994F461026DDF8149006E0881C3D
:1019A0000AF1080A1946103C102C13DD4B1C1032AA
:1019B000072B0F92CAF80070CAF804600E93EEDD90
:1019C000002A40F08E82103C102C4FF0010011468E
:1019D000DA46EBDCB946224407280F92CAF8009099
:1019E000CAF804400E9040F39B82002A40F0258400
:1019F000029B069AAA42ACBF9B185B19029399E21C
:101A000046F0800698F800302BE60694002940F056
:101A1000AF8446F01006B30640F1128304990731F3
:101A200021F00701D1E900230831049114461D4635
:101A3000002A73F10003C0F28683019B9DF82F906A
:101A4000002BC0F21A8354EA050326F0800600F04A
:101A5000ED80002D08BF0A2CC0F0ED805F462046C7
:101A600029460A22002302F047FA303207F8012DF6
:101A70002046294600230A2202F03EFA04460D467B
:101A800054EA0503EBD1C7EB0B030393A2E600BFB7
:101A9000B0424000CC4240008C42400006940029F5
:101AA00040F0628446F0100616F0200300F0AE828B
:101AB000049B073323F007034FF000028DF82F201B
:101AC000D3E9004503F10802019B0492002BC0F208
:101AD000748154EA050326F0800640F06E81019B74
:101AE000002B00F030844FF00009002400255F46F1
:101AF000E20842EA4572E90804F007030D4614467D
:101B0000303354EA050207F8013DF1D1F407BAD5A4
:101B1000302BB8D030227B1E07F8012CC3EB0B0210
:101B200003921F4656E6A3F13002002418F8013B49
:101B300004EB840402EB4404A3F13002092AF5D932
:101B400091E598F8003001212B208AE598F80030C3
:101B50002A2B08F1010500F0DD83A3F13002092AE8
:101B6000A84698BF002500F2CE8318F8013B05EB8C
:101B7000850502EB4505A3F13002092AF5D945EAAE
:101B8000E57201926FE5049A14681346002C03F184
:101B90000403FFF6EDAD049398F8003061E5069478
:101BA000002981D08DF82F007EE7049A06941768EB
:101BB0004FF000038DF82F30141D019B002F00F013
:101BC0008683002BC0F25F831A460021384601F05D
:101BD0005FFC002800F08F83C31B03930023049451
:101BE0009DF82F900193F5E50694002940F0B98304
:101BF00016F0200935D116F0100303D116F0400974
:101C000040F02A83049A13461468019A8DF82F90A5
:101C1000002A03F104034FF00005C0F2328354EAB6
:101C2000050226F0800604937FF413AF019B002B7E
:101C30003FF4CCAD00242AAF303407F8414DC7EB58
:101C40000B030393C6E546F0200698F8003008E53C
:101C50000694002940F06E8346F0100616F0200925
:101C6000C9D0049B073323F007034FF000028DF81F
:101C70002F20D3E9004503F10802019B0492002BB9
:101C8000C0F2F98154EA050326F080064FF00009FE
:101C90007FF4DFAECAE70694002940F05183B20614
:101CA000AE4841D5049A073222F00702D2E9004536
:101CB00002F10801049116F0010900F0778154EA5D
:101CC000050240F026824FF000038DF82F30019B73
:101CD000002BC0F2968126F0800672E5049A0694E5
:101CE00013688DF8403013464FF00001012504338E
:101CF0008DF82F100493039510AF0023019373E523
:101D000098F8003000287FF4ACAC01212020A8E432
:101D100046F0010698F80030A3E40694002940F04C
:101D20000C83B2068E48BDD40499F7060A4600F12A
:101D30009D81750640F19A8104320C880492002539
:101D4000B9E746F0400698F800308AE498F8003089
:101D50006C2B03BF98F8013046F0200608F101080B
:101D600046F010067DE4002940F00983B40640F1F6
:101D70001C82049A02991368CD170846043229463A
:101D80000492C3E9000136E4069400293FF443AE0F
:101D90008DF82F003FE60694002940F0ED82002BDD
:101DA00000F08F8001258DF840304FF000038DF852
:101DB0002F30039510AFA0E704934FF0000996E68B
:101DC0000DAA009909934846FFF7A8FB00287FD188
:101DD0000E980F9A099B00F1010EDC4629E50E983A
:101DE0000F9A00F1010E9DF82F30002B3FF450ADFB
:101DF00001320DF12F010123BEF1070F0F92CDF833
:101E000038E08AE80A0040F3BF80002A40F04E81A3
:101E10000799002940F0BE809E461046DA46089B8E
:101E2000802B3FF450AD019B03995C1A002C7FF787
:101E300093AD102CDFF82C9125DDD4461023C2463B
:101E4000A8464D46DDF8149007E000F1020E0CF1B3
:101E5000080C0846103C102C11DD411C10320729DB
:101E60000F92CCF80050CCF804300E91EDDDD2B9D1
:101E7000103C102C4FF0010E1046DC46EDDCA9465C
:101E80004546D046E2462244BEF1070F0F92CAF8FB
:101E90000090CAF80440CDF838E02EDC0AF1080AB8
:101EA0000EF1010E58E50DAA009901934846FFF77F
:101EB00035FB68B90E980F9A019B00F1010EDC46C4
:101EC000C8E70F9B23B1059800990DAAFFF726FBE1
:101ED000009B9B895A0600F18B8102982BB0BDE8CC
:101EE000F08F0DAA00994846FFF718FB0028EFD1A4
:101EF0000E990F9A481CDA4655E5002A40F0FB80FF
:101F0000039A1B9201230F921A970E93DA460AF155
:101F1000080A710704D5069B5C1B002C3FF734AD03
:101F2000029B0699A942ACBF5B185B190293002A79
:101F300040F0B38000230E93DA46FFF75CBB0DAA96
:101F4000009907934846FFF7E9FA0028C0D10E9898
:101F50000F9A079B00F1010CDE46CBE49C42400047
:101F6000B04240008C424000002A40F033819DF88E
:101F70002F30002B00F0F58001230DF12F011A46C0
:101F80001B939E461A91DA4670460AF1080A0EF132
:101F9000010E7DE40CA902229E461A911B92DA469C
:101FA00070460AF1080A0EF1010E38E7019B8DF820
:101FB0002F90002BC0F22A8154EA050326F08006F8
:101FC0003FF4FFAB5F46230904F00F0143EA0573BA
:101FD0002A091C461546435C07F8013D54EA0503EF
:101FE000F1D1C7EB0B030393FFF7F4BB0DAA0099E4
:101FF0000598FFF793FA00287FF46AAF0F9ADA4644
:1020000087E74FF0000900240025DBE716F01002F7
:1020100000F0B28004998DF82F300A460C680199BF
:10202000002902F104024FF00005C0F2598154EA80
:10203000050126F0800604923FF451AD994656E51D
:10204000F7060AD4750608D50499B1F900400431A1
:10205000E51722462B460491EAE4049A14681346D5
:102060000433E517049322462B46E1E41468043256
:10207000049200251FE64FF0000954EA05037FF49F
:10208000E8ACD8E50DAA00990598FFF747FA0028B3
:102090007FF41EAFDA46FFF748BB0DAA00990598FA
:1020A000FFF73CFA00283FF445AF11E70DAA00996D
:1020B0000598FFF733FA00287FF40AAF0E980F9ABD
:1020C00000F1010EDA46FFF7E3BB0DAA009905986F
:1020D000FFF724FA00287FF4FBAE0E980F9A00F168
:1020E000010EDA469BE6002A40F0D8804FF0010E40
:1020F0001046DA4697E60DAA00990598FFF70EFA02
:1021000000287FF4E5AE0E9B0F9A03F1010EDA462C
:1021100022E430228DF83020019A8DF83130002AE7
:102120004FF000038DF82F3046F00203C0F2CB8051
:1021300026F0800646F002064FF0000942E74FF015
:10214000000990483EE7019B64424FF02D0965EB82
:102150004505002B8DF82F90FFF67BAC26F080060E
:1021600077E4079B002B72D00CAB02221A931B92D0
:102170004FF0010EDA4613E716F0400948D00499F3
:102180008DF82F200B460C880199002903F10403D8
:102190004FF00005FFF610AE54EA050126F0800668
:1021A00004933FF49CAC9146A1E4F0060AD4710676
:1021B00008D5049A136804320492BDF808201A80E6
:1021C000FFF719BA049A136804320492029A1A604B
:1021D000FFF711BA0DAA00990598FFF79FF900289B
:1021E0007FF476AE0E980F9A00F1010EDA46FAE50A
:1021F0004FF0FF30FFF7B6BA6248164654EA0502C0
:1022000004934FF000097FF4DDAEFCE6049BF5E794
:10221000049A8DF82F9013461468019A002A03F14E
:1022200004034FF00005FFF6C7AD54EA050226F09F
:10223000800604937FF45BAC51E40DAA00990598E5
:10224000FFF76CF900287FF443AE0F9A68E610465A
:102250004FF0010EDA46E6E504998DF82F300A4674
:102260000C880199002902F104024FF000054EDBB1
:1022700054EA050126F08006049299467FF4E9AB02
:10228000D4E40493F9E638460494FFF7D9F8002320
:1022900003909DF82F900193FFF79CBA0DAA009927
:1022A0000598FFF73BF900287FF412AE0E980F9ABD
:1022B00000F1010EDA46B6E50E980F9ADFF8CC90E1
:1022C0000130FFF7D2BA1E464FF000097AE6062B1E
:1022D00028BF06230393049423EAE3752A4F0CE5F1
:1022E00004926AE50E98DFF8A4900130FFF773BB03
:1022F000F446FFF71ABB019B9DF82F9003930494BB
:102300000190FFF767BA00220192FFF7ACB904927F
:102310009946B2E6049A136801930432002B0492A2
:1023200098F80130A846BFF69CA94FF0FF32019201
:10233000FFF797B98DF82F008EE48DF82F00F0E4A9
:102340008DF82F00ABE49946F30705D52AAF30236B
:1023500007F8413DFFF797BB019B03935F46FFF7EB
:1023600039BA8DF82F0043E48DF82F00FFF79ABBA0
:102370008DF82F00FFF74DBB8DF82F000FE58DF87E
:102380002F00F3E4B0424000C4424000CC42400081
:10239000F0B50C46ADF26C4D8989666EE5891996EB
:1023A00021F00201666AADF80E500025E769ADF82C
:1023B0000C10099606951AAE4FF480656946009692
:1023C00004960295059507970646FFF7E3F8051E64
:1023D00007DB3046694600F029F9002818BF4FF0A6
:1023E000FF35BDF80C305B0603D5A38943F04003ED
:1023F000A38128460DF26C4DF0BD00BF38B5304BBF
:102400001B6805460C4613B19A6B002A38D0B4F904
:102410000C2093B218070CD52069A8B113F0010263
:102420001ED0636900225B42A361A260F0B100206C
:1024300038BDD9063CD5580726D4206942F0080398
:10244000A3819BB20028E9D103F42072B2F5007F8A
:10245000E4D02846214600F015FDA3892069DDE778
:10246000990758BF6269A2600028E0D1B4F90C3026
:102470001A06DDD543F04003A3814FF0FF3038BD8D
:10248000184600F067F9C2E7216B51B104F140032F
:10249000994204D0284600F027FAB4F90C20002312
:1024A000236300232069636022F024022060C5E7D3
:1024B00042F0400209232B604FF0FF30A28138BD6B
:1024C00040044020024B13B1024800F005B87047A9
:1024D0000000000069274000002301461A46184604
:1024E00001F012BCB1F90C309AB22DE9F0410D4661
:1024F000110780463CD46A6843F40063002AAB812C
:1025000073DDAC6A002C4BD09BB203F480520021E7
:1025100092B2D8F80060C8F80010002A69D02A6D7D
:102520005F0705D569682B6B521A0BB1EB6BD21A9A
:102530000023E9694046A047441C3CD0B5F90C3063
:102540002A692A6023F400630022AB81DB046A60FD
:1025500049D4296BC8F8006011B305F140039942D2
:1025600002D0404600F0C0F900202863BDE8F081A9
:102570002E69AEB12C682E6090070CBF6B690023EA
:10258000A41BAB600AE0234632466F6AE969404605
:10259000B8470028A4EB0004064404DD002CF2DC5C
:1025A0000020BDE8F081AB8943F04003AB814FF0E0
:1025B000FF30BDE8F081D8F800201D2AF3D81A4B6F
:1025C000D34003F0010383F00104002BEBD0B5F9F5
:1025D0000C302969296023F40063D9046C60AB8155
:1025E000B7D5002AB5D12865B3E7EA6B002A88DCA5
:1025F000D6E70123E9694046A047431C024602D0C2
:10260000AB89AC6A8CE7D8F80030002BF8D01D2BD2
:1026100001D0162B02D1C8F80060C1E7AB8943F0A6
:102620004003AB81BDE8F0810100402010B50446B5
:1026300082B008B1836B53B1B1F90C0008B902B094
:1026400010BD204602B0BDE81040FFF74BBF01911E
:1026500000F080F80199EFE7014900F0AFBB00BF3F
:10266000D13D40002DE9F04F354B4568C363002450
:10267000074600F53B7204230321C0F8E412C0F8BA
:10268000E822C0F8E04283B02C606C60AC606C66FD
:10269000EC812C616C61AC61AB81214605F15C0081
:1026A0000822FEF789FDBE68DFF898B0DFF898A031
:1026B000DFF89890DFF89880C5F820B00123092250
:1026C000C5F824A0C5F82890C5F82C80ED612146F6
:1026D000F381B28106F15C0034607460B4607466AA
:1026E00034617461B46108220193FEF765FDFD68F1
:1026F000F66112200222C6F820B0C6F824A0C6F85F
:102700002890C6F82C802146A881EA812C606C6054
:10271000AC606C662C616C61AC6105F15C000822F8
:10272000FEF74AFD019BED61C5F820B0C5F824A075
:10273000C5F82890C5F82C80BB6303B0BDE8F08FC6
:1027400059264000393B40005D3B4000993B40002A
:10275000B93B4000836B03B17047FFF783BF00BFF5
:10276000704700BF704700BF38B5074D074C2C1BA2
:10277000A41005D0013C55F8043D9847002CF9D130
:10278000BDE8384001F0B4BD00434000FC424000C9
:102790002DE9F04782B080468946144600F03CFBA4
:1027A000012833D004F15C034A4601A9404601F0F8
:1027B0005DFAB0F1FF3F824621D088B39DF80460F6
:1027C000002508E023685A1C22601E70013555451B
:1027D00026D201AB5E5DA368013B002BA360F1DA5A
:1027E000A769BB4231462246404601DB0A2EE9D1A9
:1027F00001F0E6F9431CE9D102B0BDE8F087A389F6
:1028000043F04003A38102B0BDE8F08709F1FF3334
:10281000FE2BC7D85FFA89F682468DF80460CFE7B1
:10282000484602B0BDE8F087B2F90C3013F4005FFF
:102830000AD110B4546E43F4005344F40054546667
:10284000938110BCFFF7A4BFFFF7A2BFF8B5234FD9
:102850000C46064600F06AFFBB685D6825F003057C
:10286000291B01F6EF7121F47F6121F00F01A1F521
:102870008054B4F5805F07DB0021304601F04AF94F
:10288000BB682B44984204D0304600F051FF002032
:10289000F8BD6142304601F03DF901300DD0104BDA
:1028A000BA6819682D1B45F001053046091B5560B3
:1028B000196000F03DFF0120F8BD0021304601F015
:1028C00029F9BA68831A0F2BDEDD064C0449246807
:1028D00043F00103001B53600860D5E76804402003
:1028E0002409402074084020002945D02DE9F041FA
:1028F0000D46804600F01AFF55F8047C6A4927F01F
:102900000103A5F10804E2188E685068B24220F075
:10291000030062D0FE0750600BD455F8087CE41B1E
:1029200001F1080EA56875453B446FD0E768EF607C
:10293000BD6015186D68ED0742D543F00102626075
:10294000E350B3F5007F18D2DB085A1C4D6851F8EC
:102950003270A76001209B1000FA03F301EBC20064
:102960001D430838E0604D6041F83240FC6040464D
:10297000BDE8F04100F0DCBE70475A0A042A53D883
:102980009A0902F139077F0002F1380501EB87004F
:1029900051F827204449083890424DD0516821F021
:1029A00003018B4202D292689042F7D1D068E06076
:1029B000A2608460D4604046BDE8F04100F0B8BE3B
:1029C00095683A4FBD4203443FD0D068E86043F079
:1029D000010285606260E350B3E7FF07034407D458
:1029E00055F8082CA41A1344A068E268C2609060ED
:1029F0002F4A126843F00100934260608C60B6D3A6
:102A00002C4B40461968FFF721FFB0E711184968C1
:102A1000C90744D49168D268CA60034443F00100F6
:102A200091606060E350A2E7142A17D802F15C07B6
:102A30007F0002F15B05A9E7AA104B68012505FAA2
:102A400002F213434B600246B1E743F001024C61CE
:102A50000C61E560A5606260E35088E7542A06D8FF
:102A60001A0B02F16F077F0002F16E058EE7B2F5D7
:102A7000AA7F06D8DA0B02F178077F0002F177050A
:102A800084E740F25450824206D89A0C02F17D0746
:102A90007F0002F17C0579E7FE277E2576E743F08B
:102AA00001026260E35062E7680440207004402045
:102AB00070084020200940209368002B76D02DE933
:102AC000F04F8B8985B00C4619070190164629D521
:102AD00022693AB303F002081FFA88F0356800282B
:102AE0002FD04FF00009B44FC846B246B845434610
:102AF0004A4628BF3B460198B8F1000F50D0E16923
:102B0000666AB047002871DDDAF808301B1A814484
:102B1000C0EB0808CAF80830002BE7D1002005B048
:102B2000BDE8F08F21460198FFF768FC002840F0CF
:102B30003A81A389356803F002081FFA88F000285B
:102B4000CFD113F001095BD14F4602961FB39A050E
:102B5000D4F808802CD54745C246C0F0A48013F4B1
:102B6000906F40F0B18020685246494600F07AFDEF
:102B7000A0682368C8EB00005344A0602360384677
:102B8000029A93681B1A81443F1A9360002BC5D0A8
:102B9000A389002FDBD1D5F800906F680835D5E701
:102BA000D5F80090D5F8048008359FE700207047DD
:102BB00020682369984203D861698F4280F0B7800A
:102BC000B84528BFB8464246494600F04BFDA368C9
:102BD0002268C8EB03034244A3602260002B49D162
:102BE00021460198FFF722FD002843D0B4F90C30AC
:102BF00043F040034FF0FF30A38105B0BDE8F08FF4
:102C00008046029082468146B9F1000F2AD0029B8D
:102C1000002B4CD0206823696269C845C34628BF91
:102C2000CB4698425F4604D9A36813449B4500F302
:102C30009080934520DB1346676AE169019852460C
:102C4000B847071ED2DDB8EB070823D0B368DB1BFB
:102C5000BA44C7EB0909B360002B3FF45FAFB9F189
:102C6000000FD4D10023D5F800A0D5F8049002932A
:102C70000835C9E7404683E75A46514600F0F2FC62
:102C8000A2682368CBEB02025B44B8EB0708A260A2
:102C90002360DBD121460198FFF7C8FC0028A5D1AD
:102CA000CDF80880D2E72068B846BA465CE74A46C5
:102CB0000A21504600F0ECFB00286FD001300123C0
:102CC000CAEB00080293A5E762692068216902EB5C
:102CD0004208C1EB000A08EBD8780AF101004FEA7C
:102CE000680838444045424684BF804642465B05FA
:102CF00042D51146019800F011F98346002855D0BD
:102D00005246216900F014FCA38923F4906343F038
:102D10008003A381CAEB08030BEB0A00C4F81480FC
:102D2000C4F810B02060A360B846BA461CE76FF044
:102D30000043BB4228BF3B464A4693FBF1F3019850
:102D4000666A01FB03F3E169B04700283FF718AF5B
:102D50004CE71A465146039300F084FC2268039B1B
:102D600001981A4422602146FFF760FC039B00286B
:102D70007FF43CAF1F4666E7019800F0DBFC83461A
:102D80000028C7D1019D21692846FFF7ADFDB4F9A0
:102D90000C300C2223F080032A6029E7012309F17B
:102DA0000108029336E74FF0FF30B8E6019A0C2392
:102DB0001360B4F90C301BE700FCFF7F2DE9F843EA
:102DC00010F538771FD0884606464FF000097D6819
:102DD000BC68013D11D4A389012B05F1FF3508D949
:102DE000B4F90E3001332146304602D0C04749EADB
:102DF00000096B1C04F16804EDD13F68002FE6D197
:102E00004846BDE8F883B9464846BDE8F88300BFA8
:102E10000048704744044020014B1868704700BFC9
:102E20006404402070B50D46B1F90E10002990B031
:102E300014461E4614DB01AA01F00CF800280FDB33
:102E4000029A02F47042A2F50052B2FA82F25209DA
:102E50004FF480634FF400603260236010B070BDA7
:102E6000A88900F0800082B2002030601AB14023AF
:102E7000236010B070BD4FF480631046236010B023
:102E800070BD00BF8A8992070B4606D501F1430247
:102E900001211A601A6159617047F0B583B001AB26
:102EA0006A460C460546FFF7BDFF009906462846D0
:102EB00000F034F8B4F90C30D0B1019A124F0099F7
:102EC000EF6343F08003A3812060206161611AB940
:102ED0003343A38103B0F0BD2846B4F90E1000F0CF
:102EE000CDFFB4F90C300028F2D043F00103EFE736
:102EF0009A05EFD404F1430243F002030121A381B8
:102F0000226022616161E5E759264000024B0146DB
:102F1000186800F003B800BF400440202DE9F04FCE
:102F200001F10B05162D83B0064640F29F8035F067
:102F3000070500F1BF80A94200F2BC8000F0F6FB5B
:102F4000B5F5FC7FC0F09C826B0A00F0BA80042BC0
:102F500000F28381A80900F1390E4FEA4E033830A0
:102F6000C44F07EB8303A3F108015C68A14207D1BA
:102F7000ACE0002A80F2AC80E468A14200F0A680B8
:102F8000636823F003035A1B0F2AF2DDB9493C6939
:102F900001F1080E744500F0B381636823F0030368
:102FA0005A1B0F2A00F39981002AC1F814E0C1F8D6
:102FB00010E080F29E80B3F5007F80F06781DB082F
:102FC00003F1010C01229B1002FA03F34A6851F845
:102FD0003C80C4F8088001EBCC091A43A9F108032E
:102FE000E3604A6041F83C40C8F80C40831001247B
:102FF0009C40944200F28A80144206D120F00300E3
:103000006400144200F10400FAD007EBC009CC467A
:103010008046DCF80C108C4507D173E1002A80F261
:103020008181C9688C4500F06D814B6823F00303F2
:103030005A1B0F2AF2DD0C46D1F80CC054F8088F49
:103040004B1945F001054D6042F00101C8F80CC074
:103050003046CCF808807B613B61C3F80CE0C3F8D4
:1030600008E059609A5000F063FB1FE0102921D856
:1030700000F05CFB1025062302207E4F07EB830344
:10308000A3F108025C68944200F045816368E1683E
:10309000A56823F00303234430465A68E96042F0F0
:1030A00001028D605A6000F043FB0834204603B0F3
:1030B000BDE8F08F00240C232046336003B0BDE848
:1030C000F08F80234FF0400E3F2049E770465DE7C8
:1030D0002344E1685A68A56842F00102E96030467D
:1030E0008D605A6000F024FB0834204603B0BDE830
:1030F000F08F234430465A6842F001025A6000F0D3
:1031000017FB0834204603B0BDE8F08FBC68636845
:1031100023F00308A84504D3C5EB08030F2B00F3E5
:103120008C80554BDFF860911A68D9F80030013374
:103130002A4404EB080A00F0608102F580520F3245
:1031400022F47F6222F00F0211463046019200F015
:10315000E1FCB0F1FF3F8346019A00F058818245BF
:1031600000F2FC80454B1968DA451144196000F003
:103170005381D9F80000DFF810E101301BBFCAEB22
:103180000B0A5144CEF800B019601BF0070100F0A3
:103190001781C1F10800C1F58051834408315A44B8
:1031A000C2F30B02C2EB010949463046019300F01D
:1031B000B1FC431C019B00F03F81CBEB00024A4471
:1031C00042F001021968C7F808B04944BC42CBF884
:1031D00004201960DFF8A49016D0B8F10F0F40F268
:1031E000FD806268A8F10C0323F00703E01802F0E9
:1031F00001024FF0050E1A430F2B6260C0F804E085
:10320000C0F808E000F21C811D4BBC681A689142AE
:1032100088BF19601B4B1A689142626888BF1960A9
:1032200022F003029542A2EB050301D80F2B04DC28
:10323000304600F07DFA002438E7621943F00103BC
:1032400045F0010565603046BA60536000F070FAE1
:103250000834204603B0BDE8F08F142B71D9542BED
:1032600000F2A480280B00F16F0E4FEA4E036E307F
:1032700076E600BF68044020200940202409402051
:103280001C09402018094020740840205A0A042ACA
:103290005ED9142A00F2B38002F15C0149005B326E
:1032A00007EB810C57F82110DFF8DC81ACF1080C3A
:1032B0008C4500F088804A6822F00302934202D2D3
:1032C00089688C45F7D1D1F80CC07A68C4F80CC075
:1032D000A160CCF80840CC6088E6631942F0010791
:1032E00045F00105656030464B610B61C3F80CE0A9
:1032F000C3F808E05F609A50083400F019FAD5E688
:103300004A6873E608F1010818F0030F0CF1080C85
:103310007FF47FAE30E0DC68A34208BF02303FF4A8
:1033200035AEB3E60B440C465A68C96854F8085FDA
:1033300042F001025A603046E9608D6000F0F8F911
:10334000B4E603F15C0E03F15B004FEA4E0307E6BF
:103350009A0902F1390149003832A1E7BC424A4BCF
:103360003FF400AF9C68626822F003025AE759F804
:103370000839994540F0828010F0030F00F1FF30CA
:10338000F5D17B6823EA04037B6064009C423FF62E
:10339000BDAE002C3FF4BAAE1C4240467FF435AEC1
:1033A00064001C4200F10400FAD02EE6B3F5AA7FB7
:1033B00018D8E80B00F1780E4FEA4E037730CFE5CE
:1033C0004FF48051EBE60121D8F80430921001FA55
:1033D00002F21A43C8F80420614677E70123CBF8CC
:1033E000043025E740F25452934220D8A80C00F153
:1033F0007D0E4FEA4E037C30B2E51032A4E6542A2B
:1034000026D81A0B02F16F0149006E3248E7BC68FA
:10341000626822F0030205E7CAF30B0000287FF47C
:10342000A8AE4244BB6842F001025A60ECE6FE23BB
:103430004FF07F0E7E2093E501224FF00009C1E698
:1034400004F108013046FFF74FFAD9F80010DBE627
:10345000B2F5AA7F05D8DA0B02F17801490077327C
:103460001EE740F254518A4205D89A0C02F17D01C0
:1034700049007C3214E7FE217E2211E77B6884E755
:10348000E808431C5B00F8E56804402000000000E9
:1034900001F0FF01102A2BDB10F0070F08D010F805
:1034A000013B013A8B422DD010F0070F42B3F6D109
:1034B000F0B441EA012141EA014122F007047FF022
:1034C00000070023F0E80256083C85EA010586EA79
:1034D000010685FA47F5A3FA87F586FA47F6A5FAB5
:1034E00087F68EB9EED1F0BC01F0FF0102F00702C1
:1034F00032B110F8013B013A83EA010313B1F8D16C
:103500000020704701387047002D06BF354603384C
:10351000073815F0010F07D1013015F4807F02BF85
:10352000013015F4C03F0130F0BC0138704700BFD6
:10353000844641EA000313F003036DD1403A41D3BE
:1035400051F8043B40F8043B51F8043B40F8043B7D
:1035500051F8043B40F8043B51F8043B40F8043B6D
:1035600051F8043B40F8043B51F8043B40F8043B5D
:1035700051F8043B40F8043B51F8043B40F8043B4D
:1035800051F8043B40F8043B51F8043B40F8043B3D
:1035900051F8043B40F8043B51F8043B40F8043B2D
:1035A00051F8043B40F8043B51F8043B40F8043B1D
:1035B00051F8043B40F8043B51F8043B40F8043B0D
:1035C000403ABDD2303211D351F8043B40F8043BAD
:1035D00051F8043B40F8043B51F8043B40F8043BED
:1035E00051F8043B40F8043B103AEDD20C3205D3BD
:1035F00051F8043B40F8043B043AF9D2043208D0B5
:10360000D2071CBF11F8013B00F8013B01D30B8826
:1036100003806046704700BF082A13D38B078DD004
:1036200010F003038AD0C3F10403D21ADB071CBFD6
:1036300011F8013B00F8013B80D331F8023B20F840
:10364000023B7BE7043AD9D3013A11F8013B00F879
:10365000013BF9D20B7803704B7843708B78837001
:10366000604670478842F0B50DD98B1898420AD24F
:103670008118002A51D09A1A13F8014D01F8014D12
:103680009342F9D1F0BD0F2A48D941EA00039B07C4
:1036900046D100F1100401F11003154653F8106CE7
:1036A00044F8106C53F80C6C44F80C6C53F8086C2C
:1036B00044F8086C103D53F8046C44F8046C0F2D6A
:1036C00003F1100304F11004E8D8A2F1100323F071
:1036D0000F0302F00F0E1033BEF1030F1944034421
:1036E00021D91E1F0D467446043C55F8047B46F84C
:1036F000047F032CF8D8AEF1040424F0030404344E
:103700002344214402F0030262B1013B0A4411F850
:10371000014B03F8014F8A42F9D1F0BD0346F3E7AC
:103720000346F2E7F0BD7246EEE700BF704700BF08
:10373000704700BF2DE9F04F174683B0002900F015
:10374000C1800E46814607F10B05FFF7EFFF56F8E3
:1037500004EC162D2EF00304A6F1080840D8102220
:103760001546AF4241D8944275DAC94B996808EBC7
:1037700004008842416800F0D98021F0010303442D
:103780005B68DB077DD51EF0010F35D03946484612
:10379000FFF7C4FB0746E0B156F8043C23F00103F1
:1037A0004344A0F108029A4200F04481221F242AD7
:1037B00000F23181132A00F2048103463246116877
:1037C00019605168596092689A6031464846FFF71F
:1037D0008BF84846FFF7ACFF384603B0BDE8F08FE2
:1037E00025F00705002D2A46BBDA0C230020C9F876
:1037F000003003B0BDE8F08F56F8083CC3EB080A70
:10380000DAF8043023F0030C04EB0C039342BDDB25
:103810005746DAF80C1057F8080F221F242AC16007
:10382000886000F21781132A40F212813168CAF8C9
:1038300008107168CAF80C101B2A00F22B81083698
:103840000AF110023168116071685160B1689160CD
:103850003E461C46D046631B0F2B1DD8D8F80430BB
:1038600003F0010323434444C8F80430636843F081
:10387000010363604846FFF75BFF304603B0BDE8D5
:10388000F08F21F003012144914221DBC36882685B
:103890000C46D3609A60DEE7D8F8042008EB0501F7
:1038A00002F00102154343F001020B44C8F8045032
:1038B0004A605A6842F0010208315A604846FFF7F0
:1038C00013F8D7E7114603B0BDE8F04FFFF726BB6A
:1038D0001EF0010F7FF45AAF56F8083CC3EB080AFC
:1038E000DAF8043023F0030C01EB0C0E96458BDB69
:1038F000C36882685746D3609A6057F8081FDAF8A1
:103900000C30CB60221F242A996000F29980132A80
:1039100062D93368CAF808307368CAF80C301B2AB9
:1039200000F2A08008360AF1100356E021F0030BE4
:10393000A34405F11000834559DA1EF0010F7FF40E
:1039400025AF56F8081CC1EB080ADAF8041021F07C
:10395000030CE34458453FF757AF5746DAF80C10CD
:1039600057F8080F221F242AC160886000F2B48033
:10397000132A40F2A5803168CAF808107168CAF8A5
:103980000C101B2A00F2AF8008360AF110023168D1
:10399000116071685160B16891600AEB0501C5EB77
:1039A0000B0242F0010299604A60DAF8043003F039
:1039B00001031D434846CAF80450FFF7B9FE3846D4
:1039C0005CE733680360736843601B2A27D800F103
:1039D000080306F10802F2E63B4632681A60726894
:1039E0005A60B2689A603E467446D04633E708EBA8
:1039F0000501C5EB0B0B4BF0010299604A6056F8CC
:103A0000043C03F001031D43484646F8045CFFF7FD
:103A10008FFE304632E73146FFF724FED5E6B36825
:103A20008360F368C360242A28D000F1100306F1F4
:103A30001002C4E650F8043C23F003031C440AE7D8
:103A4000314638467446D046FFF70CFE3E4602E744
:103A50003A46F7E6314638461C46D046FFF702FEA6
:103A60003E46F8E6B368CAF81030F368CAF8143076
:103A7000242A1BD010360AF11803AEE7336903611C
:103A80007369436106F1180200F1180397E600BF5D
:103A900068044020B168CAF81010F168CAF8141020
:103AA000242A0FD010360AF11802CBE63369CAF87F
:103AB00018307369CAF81C3018360AF120038CE7F5
:103AC0003A4664E73269CAF818207269CAF81C20BD
:103AD00018360AF12002B5E6314638460193FFF761
:103AE000C1FD019B59E7B168CAF81010F168CAF826
:103AF0001410242A03D010360AF1180247E732695D
:103B0000CAF818207269CAF81C2018360AF1200277
:103B10003DE700BF38B5074C002305460846236043
:103B2000FDF7E6FA431C00D038BD2368002BFBD01C
:103B30002B6038BDE009402010B50C46B1F90E10DD
:103B400000F0C4F9002803DB236D0344236510BD96
:103B5000A38923F48053A38110BD00BF2DE9F04158
:103B60001646B1F90C201F46D3050C46054607D56D
:103B700000220223B1F90E1000F092F9B4F90C20E2
:103B8000B4F90E1022F48052A2813B4632462846F8
:103B9000BDE8F04100F0A2B810B50C46B1F90E1026
:103BA00000F07EF9A389421C0EBF23F4805343F436
:103BB00080532065A38110BDB1F90E1000F0F6B856
:103BC000F8B50E461446074610B1836B002B4AD059
:103BD000B4F90C20A369A36091B2080738D5236912
:103BE000002B35D08904F5B215D522686169D31A46
:103BF0008B421CDA0133A168501C0139A16020609E
:103C0000167062699A421AD0A389DB0701D50A2D82
:103C100015D02846F8BD616E42F4005221F40051DF
:103C2000A281226861666169D31A8B42E2DB214678
:103C30003846FEF7FBFC40B922680123DBE721464A
:103C40003846FEF7F3FC0028E3D04FF0FF30F8BD14
:103C500021463846FEF7D2FB0028F6D1B4F90C20F5
:103C6000236991B2BEE7FEF775FDB1E72DE9F0419A
:103C7000054686B01E460C46A1B1104B1746D3F838
:103C80000080FFF7C5F8009603463A4621462846CD
:103C9000C047431C03D100228A2332602B6006B048
:103CA000BDE8F081054B1F68FFF7B2F800960346A8
:103CB000224603A92846B847EBE700BF7808402012
:103CC00021B1FF2A04D80A700120704708467047C6
:103CD0008A2303604FF0FF30704700BF70B50D4678
:103CE000084C114606461A46284600232360FCF776
:103CF0009DFC431C00D070BD2368002BFBD03360BB
:103D000070BD00BFE00940202DE9F047254C256833
:103D1000D5F848410646884692469946C4B360683D
:103D20001F2817DC431C76B104EB80050122C5F87F
:103D300088A0D4F8881182401143022EC4F888115B
:103D4000C5F808911ED00230636044F8208000203E
:103D5000BDE8F087144B03B34FF4C870FFF7D6F8F3
:103D60000446D0B1D5F84831002780E88800C5F86E
:103D7000484138460123C4F88871C4F88C71002E7C
:103D8000E1D0D1E7D4F88C110A43C4F88C21DAE7EA
:103D900005F5A674C5F84841C1E74FF0FF30BDE80E
:103DA000F08700BF844240000D2F400038B5074C1B
:103DB0000023054608462360FDF7B4F9431C00D0F4
:103DC00038BD2368002BFBD02B6038BDE0094020B4
:103DD00000293DD070B505460C4608B1836B7BB316
:103DE000B4F90C300BB9002070BD21462846FEF70F
:103DF00079FBE36A064633B1E16928469847002813
:103E0000B8BF4FF0FF36A3891B061CD4216B41B10C
:103E100004F14003994202D02846FEF765FD0023D5
:103E20002363616C21B12846FEF75EFD00236364C5
:103E3000FEF796FC0023A381FEF794FC304670BD8C
:103E4000FEF788FCCCE721692846FEF74DFDDDE74B
:103E50000020704738B50B46074C054611461846FA
:103E600000232360FDF762F9431C00D038BD2368AE
:103E7000002BFBD02B6038BDE009402038B5074C43
:103E80000023054608462360FDF756F9431C00D081
:103E900038BD2368002BFBD02B6038BDE0094020E3
:103EA00070B50D46084C114606461A4628460023B2
:103EB0002360FDF743F9431C00D070BD2368002B3D
:103EC000FBD0336070BD00BFE009402070B50D46E7
:103ED000084C114606461A46284600232360FCF784
:103EE00087FB431C00D070BD2368002BFBD03360E0
:103EF00070BD00BFE009402053B94AB9002908BF8E
:103F000000281CBF4FF0FF314FF0FF3000F07EB9AA
:103F1000ADF1080C6DE904CE00F006F8DDF804E020
:103F2000DDE9022304B070472DE9F0478C460E46C8
:103F30000446089D002B50D18A4217466CD9B2FA2C
:103F400082FEBEF1000F0BD0CEF1200420FA04F463
:103F500001FA0EF644EA060C02FA0EF700FA0EF425
:103F60004FEA1749220CBCFBF9F01FFA87F809FB4E
:103F700010C642EA064600FB08F3B34209D9F61917
:103F800000F1FF3280F02281B34240F21F810238FB
:103F90003E44F61AA2B2B6FBF9F309FB136642EAF5
:103FA000064403FB08F8A04509D9E41903F1FF32E0
:103FB00080F00A81A04540F20781023B3C44C8EBF7
:103FC000040443EA00400021002D62D024FA0EF4DC
:103FD00000232C606B60BDE8F0878B4207D9002D71
:103FE00055D0002185E841000846BDE8F087B3FAC6
:103FF00083F1002940F09080B34202D3824200F264
:10400000F880841A66EB03060120B446002D40D0E8
:1040100085E81010BDE8F08712B90127B7FBF2F769
:10402000B7FA87FEBEF1000F35D1F31B4FEA1748F0
:104030001FFA87FC0121B3FBF8F0220C08FB1036B5
:1040400042EA06460CFB00F3B34207D9F61900F129
:10405000FF3202D2B34200F2CE801046F61AA2B26C
:10406000B6FBF8F308FB136642EA06440CFB03FCBC
:10407000A44507D9E41903F1FF3202D2A44500F2A6
:10408000B5801346CCEB040443EA00409CE7294684
:104090002846BDE8F087CEF1200106FA0EF307FAB4
:1040A0000EF720FA01F94FEA1748CE4049EA030912
:1040B000B6FBF8FA4FEA194408FB1A661FFA87FCA8
:1040C00044EA06430AFB0CF29A4200FA0EF40AD9BB
:1040D000DB190AF1FF3180F087809A4240F2848038
:1040E000AAF1020A3B449B1A1FFA89F9B3FBF8F1C3
:1040F00008FB113349EA034301FB0CF69E4207D942
:10410000DB1901F1FF326BD29E4269D902393B447F
:104110009B1B41EA0A418EE7C1F1200E22FA0EF400
:104120008B40234320FA0EF706FA01F44FEA134CB2
:1041300026FA0EF63C43B6FBFCF9270C0CFB19667D
:104140001FFA83F847EA064609FB08F7B74202FA66
:1041500001F200FA01FA08D9F61809F1FF3041D24C
:10416000B7423FD9A9F102091E44F61BA0B2B6FB23
:10417000FCF40CFB146640EA064704FB08F8B8455B
:1041800007D9FF1804F1FF3028D2B84526D9023CE0
:104190001F4444EA0940C8EB0707A0FB02894F45CA
:1041A00044464E4614D329D065B3BAEB040367EBFB
:1041B000060707FA0EFECB40CF404EEA030385E820
:1041C00088000021BDE8F0871346F8E61046E0E6D7
:1041D000B8EB020469EB03060138E5E70446D8E7CB
:1041E000114695E78146C0E78A467CE7023B3C449E
:1041F00048E708460AE702383E442FE7C245E7D3BE
:104200003E46D1E72946BDE8F08700BF704700BFB2
:104210002D2D20414645432054656D7065726174B3
:104220007572652053656E736F72204578616D708D
:104230006C65202D2D0D0A2D2D2053414D45373015
:104240002D58504C44202D2D0D0A2D2D20436F6DDF
:1042500070696C65643A20417072203137203230C9
:1042600031372031383A30363A3238202D2D0D0092
:1042700054656D70203A202564200D0A000000006E
:1042800043000000180040200A00000030303030A9
:104290003030303030303030303030303031323318
:1042A0003435363738394142434445460000000032
:1042B000303132333435363738396162636465669C
:1042C00000000000286E756C6C2900002020202062
:1042D000202020202020202020202020F8B500BFF2
:1042E000F8BC08BC9E467047C524400065014000EC
:1042F000F8B500BFF8BC08BC9E46704741014000BD
:0843000028FCFF7F0100000012
:10430800BFF35F8F0138FBD1704700BF0100000089
:1043180000093D00000000000000000004034020E8
:104328006C034020D403402000000000000000007F
:104338000000000000000000000000000000000075
:104348000000000000000000000000008042400063
:104358000000000000000000000000000000000055
:104368000000000000000000000000000000000045
:104378000000000000000000000000000000000035
:104388000000000000000000000000000000000025
:104398000000000000000000000000000000000015
:1043A8000000000000000000000000000000000005
:1043B80000000000000000000000000000000000F5
:1043C80001000000000000000E33CDAB34126DE692
:1043D800ECDE05000B0000000000000000000000FB
:1043E80000000000000000000000000000000000C5
:1043F80000000000000000000000000000000000B5
:1044080000000000000000000000000000000000A4
:104418000000000000000000000000000000000094
:104748001800402041534349490000000000000080
:104758000000000000000000000000000000000051
:104768000000000001000000000000000000000040
:1047780068044020680440207004402070044020F1
:1047880078044020780440208004402080044020A1
:104798008804402088044020900440209004402051
:1047A8009804402098044020A0044020A004402001
:1047B800A8044020A8044020B0044020B0044020B1
:1047C800B8044020B8044020C0044020C004402061
:1047D800C8044020C8044020D0044020D004402011
:1047E800D8044020D8044020E0044020E0044020C1
:1047F800E8044020E8044020F0044020F004402071
:10480800F8044020F804402000054020000540201E
:1048180008054020080540201005402010054020CC
:10482800180540201805402020054020200540207C
:10483800280540202805402030054020300540202C
:1048480038054020380540204005402040054020DC
:10485800480540204805402050054020500540208C
:10486800580540205805402060054020600540203C
:1048780068054020680540207005402070054020EC
:10488800780540207805402080054020800540209C
:10489800880540208805402090054020900540204C
:1048A8009805402098054020A0054020A0054020FC
:1048B800A8054020A8054020B0054020B0054020AC
:1048C800B8054020B8054020C0054020C00540205C
:1048D800C8054020C8054020D0054020D00540200C
:1048E800D8054020D8054020E0054020E0054020BC
:1048F800E8054020E8054020F0054020F00540206C
:10490800F8054020F8054020000640200006402019
:1049180008064020080640201006402010064020C7
:104928001806402018064020200640202006402077
:104938002806402028064020300640203006402027
:1049480038064020380640204006402040064020D7
:104958004806402048064020500640205006402087
:104968005806402058064020600640206006402037
:1049780068064020680640207006402070064020E7
:104988007806402078064020800640208006402097
:104998008806402088064020900640209006402047
:1049A8009806402098064020A0064020A0064020F7
:1049B800A8064020A8064020B0064020B0064020A7
:1049C800B8064020B8064020C0064020C006402057
:1049D800C8064020C8064020D0064020D006402007
:1049E800D8064020D8064020E0064020E0064020B7
:1049F800E8064020E8064020F0064020F006402067
:104A0800F8064020F8064020000740200007402014
:104A180008074020080740201007402010074020C2
:104A28001807402018074020200740202007402072
:104A38002807402028074020300740203007402022
:104A480038074020380740204007402040074020D2
:104A58004807402048074020500740205007402082
:104A68005807402058074020600740206007402032
:104A780068074020680740207007402070074020E2
:104A88007807402078074020800740208007402092
:104A98008807402088074020900740209007402042
:104AA8009807402098074020A0074020A0074020F2
:104AB800A8074020A8074020B0074020B0074020A2
:104AC800B8074020B8074020C0074020C007402052
:104AD800C8074020C8074020D0074020D007402002
:104AE800D8074020D8074020E0074020E0074020B2
:104AF800E8074020E8074020F0074020F007402062
:104B0800F8074020F807402000084020000840200F
:104B180008084020080840201008402010084020BD
:104B2800180840201808402020084020200840206D
:104B3800280840202808402030084020300840201D
:104B480038084020380840204008402040084020CD
:104B5800480840204808402050084020500840207D
:104B6800580840205808402060084020600840202D
:0C4B780000000200FFFFFFFFC13C4000F6
:0400000500400E7930
:00000001FF
